:100000000C9434000C9451000C9451000C94510049
:100010000C9451000C9451000C9451000C9451001C
:100020000C9451000C9451000C9451000C94F0006D
:100030000C9451000C9451000C9451000C945100FC
:100040000C9451000C9451000C9451000C945100EC
:100050000C9451000C9451000C9451000C945100DC
:100060000C9451000C94510011241FBECFEFD8E026
:10007000DEBFCDBF11E0A0E0B1E0ECE7F6E002C0EA
:1000800005900D92A63EB107D9F721E0A6EEB1E0AA
:1000900001C01D92A83FB207E1F70E9411030C9422
:1000A0003C030C940000449A449808958F7088B9DA
:1000B0000E9453000895CF93C82F82958F700E949D
:1000C00056008C2F8F700E9456008DE08A95F1F7B4
:1000D0000000CF910895CF93C82F82958F708062D2
:1000E00088B90E945300CF70C062C8B90E94530003
:1000F0008DE08A95F1F70000CF91089581E00E948C
:100100005B0083EF91E00197F1F700C000000895D4
:1001100085EA9EE00197F1F700C0000083E00E94AD
:10012000560080E094E00197F1F700C0000083E002
:100130000E94560091E29A95F1F7000083E00E9438
:1001400056008DE08A95F1F7000082E00E9456008B
:100150009DE09A95F1F7000088E20E945B008CE038
:100160000E945B000E947E0086E00E945B00089572
:10017000982F9F70807F29F4892F80680E945B00F0
:100180000895892F806C0E945B000895FF920F9361
:100190001F93CF93DF93F82EC92FD62F0E947E0096
:1001A000D1110FC017C0F80181918F010E946B001F
:1001B000CF3019F480E10E94B800CF5FDC13F3CF99
:1001C00009C00F2D1C2FF80181918F010E946B0037
:1001D000C0E0F3CFDF91CF911F910F91FF90089571
:1001E0001F920F920FB60F9211248F939F938091BD
:1001F000F7018F5F8093F7019BB181E0911180E05F
:100200008BB99F918F910F900FBE0F901F901895F3
:10021000882311F190E0EFE4F3EC3197F1F700C09F
:100220000000EFE4F3EC3197F1F700C00000EFE4D9
:10023000F3EC3197F1F700C00000EFE4F3EC3197F5
:10024000F1F700C00000EFE4F3EC3197F1F700C0E4
:1002500000009F5F8913DFCF0895CF93DF93C82FEE
:10026000D0E0CA30D10570F09E01ADECBCEC0E942C
:100270002D03969587959695879596958795805D9C
:100280000E946B009E01ADECBCEC0E942D03969584
:10029000879596958795969587959C01220F331F94
:1002A000880F991F880F991F880F991F820F931F1E
:1002B0009E01281B390BC901805D0E946B00DF91F4
:1002C000CF910895CF93DF9300D000D0CDB7DEB7A4
:1002D0008EEF89838DEF8A838BEF8B8387EF8C83FF
:1002E000FE01319680E0919195B9000093B1907F25
:1002F000903F89F0903B59F018F4903751F00BC0C3
:10030000903D19F0903E59F006C08F5F08C08E5F97
:1003100006C08D5F04C08D5F8C3029F78FEF0F9082
:100320000F900F900F90DF91CF910895EF92FF9271
:100330000F931F93CF93DF937C01162F0E947E00B3
:10034000112371F0E7011150012F10E00F5F1F4FD3
:100350000E0D1F1D89910E942D01C017D107D1F7E5
:10036000DF91CF911F910F91FF90EF900895CF9360
:100370008091F60181110CC06AE08DE091E00E944D
:10038000C60082E00E94080184E08093F6011CC14F
:10039000813099F5109281001092F701809100014F
:1003A000823019F483E687BD02C089E087BDC6B5F7
:1003B000E091EA01F0E0E451FE4FC08382E08093D7
:1003C000F6016CE088E191E00E94C6008C2F0E944B
:1003D0002D0181E00E94080160E185E291E00E9428
:1003E000C6001092E9018BE0809381001092E80131
:1003F0008091E6018F5F8093E6018091F601823063
:1004000009F0E2C02091F70130E08091E60190E030
:10041000880F991F821793070CF4C1C08091EA01DD
:10042000833071F51092EA0167E087E391E00E9462
:10043000C60082E00E94080180910001823061F4D0
:100440006DE18FE391E00E94C60081E0809300019E
:1004500083E08093F6010BC06DE18DE591E00E9491
:10046000C60082E08093000183E08093F601109241
:10047000EA011092F7011092E60110928100A4C0E7
:100480000E9462018093EB018F3F09F49DC0E82F29
:10049000F0E0EF5FFE4F8081805D0E946B008FE493
:1004A00093EC0197F1F700C0000087EA91E601970D
:1004B000F1F700C00000E091E901F0E0E451FE4FE7
:1004C00080818A3018F18091E8018230F8F481113E
:1004D00011C0E091EB01F0E0EF5FFE4F8081880FEB
:1004E000982F990F990F890F8093E70181E08093EE
:1004F000E8016AC0E091EB01F0E0EF5FFE4F909100
:10050000E7018081890F8093E70179C0E091EB01D9
:10051000F0E0EF5FFE4F80818093E70170C0909123
:10052000EA01891312C068E08BE791E00E94C600DF
:1005300082E00E9408018091EA018F5F8093EA01C6
:100540001092F70181E08093F6018091E9018F5FBD
:100550008093E90139C06DE084E891E00E94C60013
:1005600082E00E9408016EE182E991E00E94C600EB
:1005700082E00E9408016091E6018CEE91E00E9409
:10058000960181E00E94080184E08093F6011092B8
:10059000EA011092E60181E08093000127C01092E9
:1005A000810068E181EB91E00E94C60082E00E9438
:1005B000080184E08093F6011092E60181E08093C7
:1005C00000011092EA0112C08091F601833051F4CB
:1005D0000E9462018093EB018B3021F481E08093D3
:1005E000F6011DC08091F6018430C9F46CE18AECFB
:1005F00091E00E94C60083E08093F60110C0109243
:1006000081001092E8018091E901E82FF0E0E451C7
:10061000FE4F20819091E70129139DCF80CFCF918C
:1006200008958FEF8AB99FE094B990EF95B987B993
:100630000E94880089E087BD82E084BD93E095BD7B
:1006400028E03DE3309389002093880086BB8093A7
:100650006F0078940E94B701FDCFA29FB001B39FB5
:10066000C001A39F700D811D1124911DB29F700DBB
:0C067000811D1124911D0895F894FFCF06
:10067C0001010203040506070809FA000D42494569
:10068C004E56454E49444F00726563756572646100
:10069C0020656C3A0073656375656E6369613A2019
:1006AC002020202020200047414E4153544500700B
:1006BC00756C73612023207061726120202020658D
:1006CC006D70657A6172206E766C20310070756C7D
:1006DC0073612023207061726120202020656D7071
:1006EC00657A6172206E766C203200636F7272656F
:1006FC0063746F0053656375656E636961206D612A
:10070C006C006C612073656375656E636961202094
:10071C002020636F7272656374612065732E2E2EB8
:10072C00006C696D697465206465207469656D7011
:10073C006F2061676F7461646F0070726573696FAD
:10074C006E6120272327207061726120636F6E74A5
:06075C00696E7561720078
:00000001FF
